:020000041000EA
:1000000000B5324B212058609868022188439860DF
:10001000D860186158612E4B002199600221596106
:100020000121F02299502B49196001219960352056
:1000300000F044F80222904214D00621196600F024
:1000400034F8196E01211966002018661A6600F04E
:100050002CF8196E196E196E052000F02FF8012189
:100060000842F9D1002199601B49196000215960AB
:100070001A491B48016001219960EB211966A021F2
:10008000196600F012F800219960164914480160C1
:100090000121996001BC002800D000471248134993
:1000A000086003C880F30888084703B5996A0420EC
:1000B0000142FBD001200142F8D103BD02B5186610
:1000C0001866FFF7F2FF186E186E02BD00000240BE
:1000D000000000180000070000035F00212200005C
:1000E000F4000018222000A00001001008ED00E03C
:1000F00000000000000000000000000074B24E7A12
:1001000000200420F7010010C3010010C5010010F9
:10011000C1010010C1010010C1010010C101001097
:10012000C1010010C1010010C1010010C701001081
:10013000C1010010C1010010C9010010CB01001065
:10014000CD010010CD010010CD010010CD01001037
:10015000CD010010CD010010CD010010CD01001027
:10016000CD010010CD010010CD010010CD01001017
:10017000CD010010CD010010CD010010CD01001007
:10018000CD010010CD010010CD010010CD010010F7
:10019000CD010010CD010010CD010010CD010010E7
:1001A000CD010010CD010010CD010010CD010010D7
:1001B000CD010010CD010010CD010010CD010010C7
:1001C00000BE00BE00BE00BE00BE00BEEFF3058054
:1001D000103800BEF2EB8871688A0710888A071011
:1001E0003402001090A31AE700201F49086006C8D7
:1001F00081F3088810471D48006800282FD10DA4FE
:100200000ECC002902D000F012F8F9E71849194A7B
:10021000002000E001C19142FCD1174988471749ED
:1002200088471749884700BEFDE701C901C29A42C5
:10023000FBD37047888A0710C00000205424002098
:100240001CAE071000000420000004201CAE0710A4
:10025000001004200010042000000000704709482E
:1002600005F07CFD0047000008ED00E0000000D034
:1002700078240020640D032055450010350300103C
:10028000894600105756000006005250ABB3605329
:10029000181A031006005250861C0302281A031075
:1002A000060052505422A29D341A031005005250E9
:1002B000DE65F4681CAE0710F8B5C046064807496D
:1002C000091A8B10C90FC91810B5491003D0044B77
:1002D000002B00D0984710BD542400205424002047
:1002E00000000000054B10B5002B03D00449054861
:1002F00000E000BFFFF7E2FF10BDC04600000000B5
:10030000ACE10020A00D031000B585B003AB019354
:1003100080220123054900931201002304480BF0B9
:1003200091F80BF093F905B000BDC046A00D031085
:100330002D05001000220A4B10B5DA6207F014F800
:10034000FA20C00003F0F2FA064806F059FE06490A
:10035000064806F0FDFFFFF7D7FF002010BDC0469E
:1003600000400540AC0D0310B00D0310BC0D031090
:10037000F0B5DE46454657464E46E0B5574C584820
:10038000A54406F03DFE574C5748210006F0E0FF1B
:10039000564D03222900200000F0ECF8002800D17F
:1003A00095E0534F380006F02BFE524B984610A8AC
:1003B00000F026F910A9504806F0CAFF15A800F071
:1003C00011F915A94D4806F0C3FF0CAB9B465A46E0
:1003D0004B4B43CB43C269461B7881A81370494BF2
:1003E0001A6804929A888A829B798B7501AB994628
:1003F0004A46454B1B78137002AA9246137000F0D0
:1004000015FC03A800F012FF03A981A800F07AFAF6
:1004100004AB5246494681A800F02EFC3B4A59469F
:100420003B4806F095FF81A800F06AFA394B0100BD
:10043000180006F08DFF4946374806F089FF012372
:10044000324A594681A800F08DFC012181A800F0B4
:1004500095FC81AB0D2200211AA801F007F90122B9
:100460002E491AA800F046FF1AA906A801F0B8FB09
:1004700006A981A800F012FE81A941A801F012FD91
:100480000122274941A800F035FF41A909A802F03F
:1004900065F909A981A800F001FE224E22480BF05F
:1004A00009FA00F0E7F80028F8D1300006F0A8FDBE
:1004B00003222900200000F05DF8002803D0380056
:1004C00006F09EFDEAE7404606F09AFDE6E7094B96
:1004D0001800984606F094FD054F68E73CF9FFFFC9
:1004E000D40D0310F00D0310FC0D0310180E0310B3
:1004F000340E0310440E0310600E0310740E03102C
:10050000EC0E0310FC0E0310700E03105B070000CE
:10051000840E03109C0E0310B00E0310C40E0310C3
:10052000D00E0310DC0E0310B80B000010B5064807
:1005300006F066FD00F00CF8002801D0FFF718FF68
:10054000024806F05DFD10BD040F0310180F0310E4
:1005500010B51AF029FA0023002804D103480449F1
:100560001EF078F80123180010BDC046E8310020C5
:1005700022101100F8B5CE46474680B50E000700A0
:1005800090461AF0A3F91249124806F0E1FE124B08
:10059000002499460AE0484606F032FD444515D24B
:1005A000FA20C0000BF086F9002D0ADA310038007D
:1005B0000A4B0B4A1AF098F901340500E4B20028FE
:1005C000E9D10120C0BCB946B046F8BD0020F9E72A
:1005D000F00D0310FC0D0310380F031060EA00004B
:1005E0000400400010B50400044817F06DFA010043
:1005F00020002FF0C1FC012010BDC046D03A0020E1
:10060000F0B5CE46474680B583B006006A46002165
:1006100015481EF079F80023002805D0180003B013
:10062000C0BCB946B046F0BD3700104B6C46994689
:100630000F4B350098460C3707E02800414602353D
:1006400005F040FB0134BD420AD022780F2AF4D9CC
:1006500028004946023505F035FB0134BD42F4D18E
:10066000002373730133D9E7E8310020500F0310E2
:100670004C0F031010B5002102481EF0D1F9C04301
:10068000C00F10BDE83100207047C04610B504000F
:10069000642106F0D5FB200010BDC04670B51600E1
:1006A0000D000C3614003000042206F0B7FBD323F3
:1006B0000C4A0D490D4806F04BFE280017F004FACD
:1006C0000500300017F000FA094B0200290018005D
:1006D00006F03EFE074806F093FC0021206E09F06C
:1006E000BBFF70BD7E0F0310900F0310940F03101B
:1006F000AC0F0310D00F0310074B10B5036000239D
:10070000436050330400038103220021012009F0DB
:1007100069FD2066200010BD7010031010B503F0B5
:1007200001FA002905D0FA220023920005F0AEFB61
:1007300010BDFA21890005F06BFBF9E7036870B57D
:100740005868150019F0CEF9040085420CD0392301
:10075000064A0749074806F0FBFD2100064806F057
:10076000F7FD064806F04CFC200070BD7E0F03101C
:10077000900F0310D40F0310EC0F0310D00F0310D1
:10078000036810B5586819F02DF8041E01DB20002D
:1007900010BD2FF099FB00680028F9D0F7E7C0469C
:1007A00070B5002204000121022086B019F038F94A
:1007B0006060002830DB0021102202A806F028FB30
:1007C00002236A465372260020890CF0D7F96B4643
:1007D0000C3658810422310003A806F01FFB1022BA
:1007E000606802A918F0B6FF051E23DB01231C492F
:1007F00001AA6068019319F0ADF9A523194A1A49B5
:100800001A4806F0A5FD1A4806F0FAFB194806F04A
:10081000F7FB012006B070BD9123124A1249164819
:1008200006F096FD154806F0EBFB124806F0E8FBD3
:100830000020EFE7300017F047F906009E23094A31
:1008400009490D4806F084FD3200290023890C482F
:1008500006F07EFD074806F0D3FB0020DAE7C0462D
:100860007E6604807E0F0310900F0310940F031018
:1008700038100310D00F0310D40F0310FC0F031017
:1008800014100310F8B50D00010004000300160059
:100890000C31114A28000DF00FF907002000290043
:1008A00010302FF069FB206E0C49268109F0A4FF5F
:1008B00001280DD07F230A4A0A490B4806F048FD5B
:1008C0003A002900094806F043FD094806F098FB64
:1008D0002000FFF765FFF8BD9D06001010270000FF
:1008E0007E0F0310900F0310D40F03104810031055
:1008F000D00F031010B5406818F0E2FE012010BDC3
:10090000806F70479723DB00C15070479623DB0050
:10091000C058704770B50400B020205882B000283D
:1009200005D0069E056801940096ED68A8479723B8
:10093000DB00E058002802D003685B69984702B0EA
:1009400070BDC04610B50400406908F037FFA069CB
:1009500008F034FF200008F031FF10BD10B504008E
:10096000C369186808F02AFFE06908F027FF200033
:1009700008F024FF10BDC0469623DB00C05810B518
:10098000002802D00BF016FA10BD0020FCE7C0468C
:10099000F0B5CE46474680B585B01D000DAB1B783F
:1009A00007009946364B20200193FA235B000E0086
:1009B0009046039308F050FE041E48D030002FF0FC
:1009C00025FB013008F048FE606100284DD0310061
:1009D0002FF0D2FA280008F03FFEA06100284AD08C
:1009E0002A00414606F01AFA012360690294237036
:1009F00060602FF00BFBA3692081E3604B466370BE
:100A0000DC239B002100256101AAF81822F050FF89
:100A1000041E0DD19723DB00F858002802D003688C
:100A20001B699847012005B0C0BCB946B046F0BD6F
:100A3000144A154B1549164806F08AFC2100154842
:100A400006F086FC144806F0DBFA0020EBE70D4ABE
:100A50000E490F48114B06F07BFC114806F078FC5C
:100A60000D4806F0CDFA0020DDE78523054A074949
:100A700007489B00EFE7034A04490548094BEAE7AA
:100A800045090010A21003102D020000900F031062
:100A9000D40F0310C0100310D00F03100E0200007B
:100AA000B01003101B020000F0B5C64600B5354B70
:100AB00084B00193FA2307005B000C2088461400E1
:100AC000039308F0C9FD051E41D0082008F0C4FDBD
:100AD000061E4BD0202008F0BFFD00284BD0012C73
:100AE00004D0022C02D0631E9C41E4B24346C6618E
:100AF00002902C706B6040462FF088FA0123288109
:100B00007360DC239B003100356001AAF81822F0E5
:100B100073FE041E0CD19723DB00F858002802D086
:100B200003681B699847012004B080BCB846F0BD3B
:100B3000154A164B1649174806F00AFC21001648BC
:100B400006F006FC154806F05BFA0020ECE7962359
:100B50000D4A0F490F489B0006F0FAFB104806F0BB
:100B6000F7FB0E4806F04CFA0020DDE7064A08497C
:100B700008480C4BF0E79923034A054905489B00B8
:100B8000EAE7C0465D090010A210031085020000CC
:100B9000900F0310D40F0310D4100310D00F0310C4
:100BA000B01003105E0200009C2370B514005B00BF
:100BB000C55810482B6851685E6A1289E36882B094
:100BC0002469864212D1B0202858002804D0066833
:100BD00001950094F468A0479723DB00E8580028AB
:100BE00002D003685B69984702B070BD280000948A
:100BF000B047F9E71509001070B504000C30FFF795
:100C000079FE90250023084E6355A3559723DB00FA
:100C1000E058002807D003689B689847635D002B65
:100C200001D00523A35570BDB404000010B5040025
:100C300000F08AFA20000D4B0C302360FFF75CFDBA
:100C400000238E220A49E367A1520232A3540432E0
:100C5000A3501832A3500432A3509622D200A350BE
:100C6000044A2000A3540432A35010BD9411031071
:100C70005B070000B4040000F8B5CE464746040008
:100C800080B501674267002B1ED094252C4F2D4E56
:100C90003A003100A3672C48962306F059FB226FD7
:100CA000A16F2A4806F054FB294B1800984606F01D
:100CB000A7F96359002B19D0AC256359002B05D037
:100CC000C0BCB946B046F8BD0B00DEE7214BA06FB3
:100CD0001900994600F0B0FA08F0BEFC60510028F7
:100CE00014D04A46A16F00F0B3FAE9E71A4BA06F9F
:100CF0001900994600F0A0FA08F0AEFC60510028F7
:100D000011D04A46A16F00F0A3FAD5E7A6233A0016
:100D10003100124806F01CFB114806F019FB404652
:100D200006F06EF9CCE79D233A0031000B4806F03F
:100D30000FFB0B4806F00CFB404606F061F9BBE7E1
:100D4000A2100310900F0310940F0310E41003106F
:100D5000D00F03102411031004110310D40F03103B
:100D600008110310C1678E21425290228354024B16
:100D70008F3AC25401207047B40400008023F0B5BC
:100D80009B008FB00593030009AD2A00B433049390
:100D9000214B04000E0083CB83C203CB03C2C623C6
:100DA000AD2200279B009200E31804211920A2180D
:100DB000009709F0B9F9DB239B00E05000281CD014
:100DC000E318099322F0BEFE2300DC200C3363609D
:100DD000231D0893114BA7600793114B80000693C6
:100DE000104B29000193104B0294009304AA06AB08
:100DF000201822F0C9F9002801D00FB0F0BD9623C9
:100E00009D22DB00E318019308492300009612019C
:100E100007480AF017FBF0E7DC1103103D0700104C
:100E200081070010A90B00101D07001028110310E6
:100E300095100010F0B5C6460B26002700B58AB005
:100E4000040003AD00211C226E442800377005F019
:100E5000DFFF0123A06F98462B7004902FF0D6F887
:100E60002881206F06902FF0D1F82882606F0890BB
:100E70002FF0CCF842469823E254043B2883E058F4
:100E80000833E0502FF0C2F8A023E052154B186849
:100E9000A423E0502FF0BAF8A823E0500F3BE7540A
:100EA0008F3B6B80DC2322009B00E01829000E4B57
:100EB000983200961FF00EF8041E04D120000AB0EC
:100EC00080BCB846F0BDCD23084A5B0008490948FC
:100ED00006F03EFA2100084806F03AFA074806F004
:100EE0008FF8EBE7B01D002030750000A210031052
:100EF000900F0310D40F031034110310D00F031000
:100F0000F0B5574645464E46DE460C23E0B59846BA
:100F1000564B89B00393564B07000493554B564DDF
:100F20000593564B564C0693564B80440793564BAD
:100F30009A46DC239B00994681443B5D062B26D8CC
:100F40009B00EB589F4606233B559723DB00F85840
:100F5000002802D00368DB68984753461E683000BB
:100F60002FF054F8AC2203000020B9583A680190E1
:100F700001300090D268380093463200D847B02341
:100F8000F858002803D0036839009B68984708F098
:100F9000C5FCD2E704233B55F9E73800FFF74AFFC9
:100FA00000283DD103233B55F1E7FFF763FB002801
:100FB00038D08E234046FA5AF96FFFF763FC0028B9
:100FC00051D19723DB003855F8580028DFD003684B
:100FD0009B6898479023FB5C002BD8D005233B559A
:100FE000D5E7484622F02AF9061E19D1274BFB5CAB
:100FF0009B46002B26D14046FFF77CFC5B463B55C9
:101000009723DB00F8580028E1D1C0E7FFF732FB57
:10101000002824D11E480AF04DFC01233B55B6E7B9
:101020000023ECE7EB23039A0499059806F090F966
:10103000069806F08DF9079805F0E2FF14480AF0CB
:1010400039FCA4E748461FF043FD4046FFF752FC39
:101050009723DB00F8583E550028B8D197E7404663
:10106000FFF748FCD6E702233B5590E7A210031098
:10107000900F0310940F0310701103104C11031004
:10108000B4040000D00F0310AC1D0020D6030000F4
:10109000B80B000010B5FFF733FFC0460300B022C5
:1010A0009950054A08009A5C10B5062A03D10A68CF
:1010B00019009268904710BDB404000070B59425E3
:1010C0000D4B040003604059002803D008F076FB64
:1010D00000236351AC256059002803D008F06EFB53
:1010E0000023635120000C30FFF7CEFA200000F0FF
:1010F00031F8200070BDC0469411031070B59425DE
:101100000F4B040003604059002803D008F056FB41
:1011100000236351AC256059002803D008F04EFB32
:101120000023635120000C30FFF7AEFA200000F0DE
:1011300011F82000034905F083FE200070BDC04671
:1011400094110310BC040000014B03607047C046BB
:10115000F81103107047C0467047C04610B5040030
:10116000042105F06DFE200010BDC04610B5162309
:10117000054A0649064806F0EBF8064806F0E8F886
:10118000054805F03DFF10BD3A1203105012031040
:10119000940F03105C120310D00F031010B51A2324
:1011A000054A0649064806F0D3F8064806F0D0F886
:1011B000054805F025FF10BD3A1203105012031028
:1011C000940F03106C120310D00F031010B51E23E0
:1011D000054A0649064806F0BBF8064806F0B8F886
:1011E000054805F00DFF10BD3A1203105012031010
:1011F000940F031078120310D00F031010B52223A0
:10120000054A0649064806F0A3F8064806F0A0F885
:10121000054805F0F5FE10BD3A12031050120310F8
:10122000940F031084120310D00F0310014B0360BE
:101230007047C0469C12031070B50D002EF0E6FEFC
:10124000040028002EF0E2FE2018093070BDC046D0
:1012500030B583B0054D064C0192064A0B00009252
:1012600021002A0004F02EFD03B030BDB41203109B
:10127000B8120310C412031070B50D002EF0C6FE94
:10128000040028002EF0C2FE20180B3070BDC046AE
:1012900030B583B0054D064C0192064A0B00009212
:1012A00021002A0004F00EFD03B030BDB41203107B
:1012B000B8120310C81203104068704710B5002818
:1012C00002D003689B69984710BDC04610B5040062
:1012D0004068002803D00AF051F90023636010BD74
:1012E000406810B5002802D00AF064FD10BD00204F
:1012F000FCE7C046F0B5040083B008000D001600FE
:1013000027002EF083FE083713281AD9132229004C
:10131000380005F083FD0023E37623682000DB69B5
:1013200098470B4D231D020001933900230028002C
:1013300000960AF087F8013843425841C0B203B022
:10134000F0BD421C2900380005F068FDE5E7C04605
:10135000BD120010024B0360002343607047C0467B
:10136000D4120310054B10B5040003604068002838
:1013700001D00AF003F9200010BDC046D4120310BA
:101380007047C046084A0300106810B5002809D00D
:101390009A0080184068002804D0026894680A0007
:1013A0001900A04710BDC0466827002010B50400F2
:1013B000782105F045FD200010BDC04670B5050040
:1013C00008000C00160001F0D5FB0123D022A34039
:1013D00020001206A40093622D1901220C21024B59
:1013E00001F034FB6E6070BD8513001070B5094DBF
:1013F0002C68002C01D0200070BD782005F014FD71
:101400000400054B7422002108C005F001FD2C608A
:10141000F1E7C04668270020FC120310014B03606F
:101420007047C0460C1303107047C046FA2070473F
:10143000124B10B5036030330400C361C06A00284A
:1014400002D003685B689847206B002801D009F040
:1014500091FA606A002803D008F0B0F900236362B3
:10146000606B002801D009F091FB20001C3000F0D7
:1014700031FB2000FFF776FF200010BD4814031059
:1014800000B583B06B46D91D022300220B70006BA0
:10149000013B09F049F801280BD08823064A074987
:1014A000074805F055FF074805F0AAFD064805F076
:1014B000A7FD03B000BDC046421303105012031035
:1014C0005013031068130310D00F031000B583B03E
:1014D0006B46D91D022300220B704069013B09F0C5
:1014E00023F801280BD08823064A0749074805F04E
:1014F0002FFF074805F084FD064805F081FD03B085
:1015000000BDC046421303105012031050130310C5
:1015100068130310D00F031000B583B06B46D91DBC
:10152000022300220B704069013B08F0FDFF0128F7
:101530000BD08823064A0749074805F009FF0748EA
:1015400005F05EFD064805F05BFD03B000BDC0463A
:1015500042130310501203105013031068130310AA
:10156000D00F0310144B10B5036030330400C36177
:10157000C06A002802D003685B689847206B002887
:1015800001D009F0F7F9606A002803D008F016F9D5
:1015900000236362606B002801D009F0F7FA200095
:1015A0001C3000F097FA2000FFF7DCFE20009C21A1
:1015B00005F046FC200010BD4814031070B504006F
:1015C000144B1C3C0500E06A23603033E3610028C3
:1015D00002D003685B689847206B002801D009F0AF
:1015E000C9F9606A002803D008F0E8F800236362B4
:1015F000606B002801D009F0C9FA280000F06AFAEF
:101600002000FFF7AFFE20009C2105F019FC200010
:1016100070BDC0464814031070B50400124B1C3C4A
:101620000500E06A23603033E361002802D00368DC
:101630005B689847206B002801D009F09BF9606A2D
:10164000002803D008F0BAF800236362606B00281A
:1016500001D009F09BFA280000F03CFA2000FFF7C7
:1016600081FE200070BDC04648140310F0B5040090
:10167000C6462600884600B51C3682B01D001700FD
:10168000FFF768FE300000F03FFA3D482823206055
:101690003030E061002042466062E0540133E06295
:1016A0006063E2540133E75498462562103005F038
:1016B000BBFB43460500E15C002200F0E7F9310086
:1016C0002800E56200F004FA00220121052008F05C
:1016D00089FD206300282BD00023802001220021D7
:1016E0000093400009F030FA606300282DD0206A92
:1016F000002802D0636A002B04D0200002B080BC16
:10170000B846F0BD03689B6898471E4E3100FFF74E
:10171000B3FD07F0A1FF051E606223D0206A0368B5
:101720009B689847320001002800FFF7B1FDE4E70D
:101730002823154A1549164805F00AFE154805F0F4
:101740005FFC154805F05CFCC6E72E230E4A0F49E6
:101750000F4805F0FDFD114805F052FC0E4805F05C
:101760004FFCC4E73823084A0849094805F0F0FD52
:101770000B4805F0EDFD084805F042FCBDE7C0460A
:1017800048140310B0130310421303105012031037
:10179000D40F031078130310D00F0310901303100D
:1017A000BC13031010B504000800210082B005220C
:1017B000383122F07BFC002831D01F4922F064FC34
:1017C000002802D0037C032B0DD0EC231B4A1C49BC
:1017D0001C4805F0BDFD1C4805F0BAFD1B4805F08E
:1017E0000FFC02B010BD6B46D91D8368206B1B78BF
:1017F000743B5A42534100220B70002308F054FD01
:101800000128EED071230D4A0D49114805F0A0FDC5
:10181000104805F0F5FB0D4805F0F2FBE1E7E72382
:10182000064A0749074805F093FD0B4805F090FD6F
:10183000064805F0E5FBD4E7E8C0061042130310A4
:1018400050120310D40F031008140310D00F03100C
:101850005013031068130310F4130310F0B5DE46A1
:1018600057464E464546E0B58DB000236A46D372D2
:10187000036B0400002B71D03C4B282698463C4B50
:1018800003AD9A4608E00B236B4400221900206B3D
:1018900008F020FF012811D000231422606B07A953
:1018A00009F06CFA0028EED06A461C210023521879
:1018B000135411002000FFF775FFE4E76B46DB7A55
:1018C000012B06D0022B26D0002B37D008F026F8AB
:1018D000E2E7A35529230121E05C19F055F8A35D47
:1018E000002B24D02B00424683CA83C3236A994627
:1018F000002BEBD028002EF089FB4A460300002085
:10190000616A1268019001300090D268484693469F
:101910002A00D847DAE70123A15D5940C9B228332C
:10192000A155E05C19F030F8A35D002BDAD12B0053
:10193000524683CA83C312781A70D7E7A355293356
:10194000E05C002119F020F8A35D002BCAD12B0028
:10195000524683CA83C312781A70C7E70DB0F0BC31
:10196000BB46B246A946A046F0BDC046D8130310F8
:10197000E4130310406B10B51400002804D00023BA
:1019800009F010F9844200D110BD8123064A0749AD
:101990005B00074805F0DCFC064805F0D9FC06486A
:1019A00005F02EFBF0E7C04642130310501203105F
:1019B000D40F031030140310D00F031010B504001F
:1019C000024B0360FFF730FD200010BD90140310A0
:1019D00010B50400044B0360FFF726FD2000102122
:1019E00005F02EFA200010BD9014031070B5037995
:1019F000040015008B4200D070BD4379002B1DD030
:101A0000042308262B421DD12E42F5D002F08AF87D
:101A1000002935D0FA220023920004F037FAA36897
:101A2000C01A0023A360831FC12B1CD8E0680028C4
:101A3000E2D0036821799B689847DDE708230426F4
:101A40002B42E1D002F06EF8002906D0FA220023E2
:101A5000920004F01BFAA060D6E7FA21890004F096
:101A6000D7F9A060D0E7E123C838DB009842C3D2A1
:101A7000E0680028C0D003682179DB689847BBE79D
:101A8000FA21890004F0C4F9C9E7C04670B5040022
:101A90000E001500FFF7C2FC0C4B267123600023DB
:101AA0006571E360FFF7A2FC22002179FFF786FC55
:101AB0002079002D05D00022012100F077FF2000C1
:101AC00070BD0122002100F071FFF8E790140310AF
:101AD000C16070477047C04610B50400042105F08E
:101AE000AFF9200010BDC04610B5024805F030FC2B
:101AF00010BDC0469C14031010B5024805F028FC28
:101B000010BDC046B0140310014B03607047C046BF
:101B1000CC140310014B03607047C046E41403105B
:101B20007047C04610B50400024B0360FFF7F8FF92
:101B3000200010BD4015031010B50400044B0360D5
:101B4000FFF7EEFF20000C2105F07AF9200010BD10
:101B500040150310F8B50C0081680500002905D078
:101B60002368012220005B699847F8BD23682000A4
:101B70009B6898470F4F06003900FFF77DFB07F081
:101B80006BFDA860002807D03A003100FFF780FB0A
:101B9000A9680029E9D0E3E72623074A074908484E
:101BA00005F0D6FB074805F0D3FB074805F028FAF7
:101BB000EEE7C046F414031026150310501203106C
:101BC000D40F0310BC130310D00F0310406819008A
:101BD00010B5002802D0029AFFF7CCFE10BDC04617
:101BE00070B504000D00FFF795FF034B2000236044
:101BF00000236560A36070BD401503108020C00005
:101C00007047C046184B10B503603033C36184235E
:101C10000400C058002802D003685B6898479423EA
:101C2000E058002801D008F0A5FE606A002803D023
:101C300007F0C4FD002363629823E058002801D018
:101C400008F0A4FF2300E06A3433984203D0616BAC
:101C5000013105F0F5F820001C30FFF73BFF2000B4
:101C6000FFF780FB200010BD7C16031000B583B089
:101C70006B46D91D02230B709233C0580022933B50
:101C800008F052FC01280BD0A023064A0649074859
:101C900005F05EFB064805F0B3F9064805F0B0F91B
:101CA00003B000BD7A150310501203105013031037
:101CB00068130310D00F031000B583B06B46D91D15
:101CC000022300220B70806F013B08F02DFC0128DD
:101CD0000BD0A023064A0749074805F039FB0748FF
:101CE00005F08EF9064805F08BF903B000BDC0463B
:101CF0007A150310501203105013031068130310C9
:101D0000D00F031000B583B06B46D91D022300220B
:101D10000B70806F013B08F007FC01280BD0A0235B
:101D2000064A0749074805F013FB074805F068F91C
:101D3000064805F065F903B000BDC0467A150310EA
:101D4000501203105013031068130310D00F031028
:101D50001B4B10B503603033C36184230400C058AB
:101D6000002802D003685B6898479423E058002855
:101D700001D008F0FFFD606A002803D007F01EFDC7
:101D8000002363629823E058002801D008F0FEFE8B
:101D90002300E06A3433984203D0616B013105F0CF
:101DA0004FF820001C30FFF795FE2000FFF7DAFA0D
:101DB00080212000490005F043F8200010BDC046F6
:101DC0007C16031070B504001A4B1C3C23603033A2
:101DD000E36184230500E058002802D003685B68B3
:101DE00098479423E058002801D008F0C3FD606AAA
:101DF000002803D007F0E2FC002363629823E05838
:101E0000002801D008F0C2FE2B0028691833984240
:101E100003D0A969013105F013F82800FFF75AFE35
:101E20002000FFF79FFA80212000490005F008F804
:101E3000200070BD7C16031070B50400184B1C3CCC
:101E400023603033E36184230500E058002802D08A
:101E500003685B6898479423E058002801D008F095
:101E600089FD606A002803D007F0A8FC00236362A4
:101E70009823E058002801D008F088FE2B0028693C
:101E80001833984203D0A969013104F0D9FF280022
:101E9000FFF720FE2000FFF765FA200070BDC04666
:101EA0007C160310F0B50400CE46474680B52700E7
:101EB0008DB01C378846FFF74DFA3800FFF724FE37
:101EC000A04B002523603033E3612823256265623F
:101ED000E55423003433E362342394202563E5542E
:101EE000994B4001636404F0A3FF984BA064E36442
:101EF00011232365994603336365023BA3650133D0
:101F0000E36507332366053B63665333E552904B25
:101F10008022E3667423260052002567E2521033C4
:101F2000A567E5674436E5501433E550300022F0EC
:101F300017F980230C22E25443464A462362882341
:101F4000E2506A46873B079308AD603306951384D9
:101F5000FC22603B06A93000920522F051FB8C2345
:101F60000100E05006989846A84205D00899013132
:101F700004F066FF4346E158A620400003F020FF2E
:101F800090230F21E050300022F064FB300022F05B
:101F90006DF90021300022F05DFB6E4B06951A684A
:101FA000252108921B796A462B710523079300238C
:101FB00052183000137006A922F0E8FB0698A842D8
:101FC00003D00899013104F03BFF0221300022F0D8
:101FD00045FB1523002205A906A80593069525F0C3
:101FE0004FFD059B152298465B490893069004F027
:101FF00015FF4346002241460793069B30005A5482
:102000008823E25806A9D30F9B18012202920022CE
:102010000192FC225B10920500920433042222F00C
:102020008DFA0698A84203D00899013104F008FF00
:102030000021300022F07EFA102004F0F5FE80230B
:102040000022E15C0500FFF721FD84233900E55003
:102050002800FFF73DFD00220121052008F0C2F80D
:102060009423E05000283DD00023802000930122DB
:102070000021800008F068FD9823E050002841D03E
:10208000206A002802D0636A002B05D020000DB022
:10209000C0BCB946B046F0BD03689B6898472F4E58
:1020A0003100FFF7E9F807F0D7FA051E606239D072
:1020B000206A03689B689847320001002800FFF7F8
:1020C000E7F8274F274E284D49233A00310027488B
:1020D00005F03EF9616A264805F03AF9280004F057
:1020E0008FFFD3E71E4F1F4E3A0031005D3B214862
:1020F00005F02EF9204804F083FF1B4D280004F062
:102100007FFFB1E7164F174E3A0031005B3B19488D
:1021100005F01EF9194804F073FF134D280004F070
:102120006FFFADE70E4F0F4E47233A0031001148C5
:1021300005F00EF9124805F00BF90B4D280004F0DC
:102140005FFFC1E77C1603102801800000C0034038
:10215000705807108C15031094150310AC1503105C
:102160007A15031050120310D00F0310940F0310B0
:10217000BC150310D40F0310781303109013031031
:10218000BC130310F0B5442357468246DE464E4644
:10219000454653449946E0B50F0095B018000F210D
:1021A00022F058FA484622F061F80021484622F011
:1021B00051FA7C6810AE3D680E9608940F2C00D939
:1021C000B5E0012C00D082E038212B7802AA521809
:1021D0001370320000230F941355FC22484601333C
:1021E00092050EA922F00CFA04000E98B04203D01A
:1021F0001099013104F024FEA6212000490003F0CB
:10220000DFFD554B0AAA00259046BB4605909C422F
:1022100052DB902253469B582A0059465A434C6839
:10222000A24200D992E04146089159460F68A41A8B
:10223000BF189C4200D91C000E940F2C68D8012CAA
:1022400053D120213B7802AA521813704246002332
:1022500009941355099C089F0E9607940F2C48D893
:10226000012C3ED138213B7802AA5218137032005B
:1022700000230F9413550122029200220192FC22A6
:102280002B0192055B19484600920A3304220EA9DD
:1022900022F054F90E98B04203D01099013104F0A5
:1022A000CFFD0898404517D00A990135013104F057
:1022B000C7FD059BAB42ACDA0021484622F03AF953
:1022C00015B0F0BCBB46B246A946A046F0BD002CF6
:1022D00000D17EE7300032E0059B0135AB4298DA51
:1022E000EAE7002CC3D030000BE0002CAED0404613
:1022F00016E0002207A90EA825F0C2FB079B0E904E
:1023000010932200390004F089FD079C0E9AAFE774
:1023100000220EA908A825F0B3FB0E9B08900A9393
:102320002200390004F07AFD0E9C089A8FE7002203
:1023300008A90EA825F0A4FB089B0E90109322007C
:10234000290004F06BFD089C0E9A43E72300034923
:10235000034825F07DFAC046B5FEFFFFE0150310E7
:10236000F815031030B5050008002900052285B0D6
:102370009C3121F09BFE041E2CD03F4921F084FEAD
:10238000002802D0037C032B32D01E233B4A3C4959
:10239000FF333C4804F0DCFF3B4804F0D9FF3B48E6
:1023A00004F02EFE20003A4921F06EFE002802D0F3
:1023B000037C022B39D02623304A3149FF33314880
:1023C00004F0C6FF334804F0C3FF304804F018FEA1
:1023D00005B030BD8C23294A29495B002E4804F002
:1023E000B7FF2E4804F0B4FF284804F009FEEFE7D9
:1023F00083680F211B786944743B5A4253410B7028
:1024000094230022E858002307F04EFF0128C9D08A
:1024100081231A4A1A49224804F09AFF214804F0FD
:10242000EFFD1A4804F0ECFDBCE7846820002DF0B5
:10243000EDFD030028002A6B002100932C302300BF
:1024400025F096FB0F21032369440B709133E85864
:102450000022002307F028FF0128B9D08923074A6A
:1024600007490F4804F074FF0E4804F0C9FD0748FF
:1024700004F0C6FDACE7C046E8C006107A150310AC
:1024800050120310940F031030160310D00F0310D6
:102490001C36031050160310D40F0310F41303104E
:1024A0005013031068130310F0B5DE4657464E462E
:1024B00045460023E0B55C4CA54402AAD372943390
:1024C000C3580400002B00D1A5E044239946574B84
:1024D00098260293564B9425039308AB9A46814461
:1024E0000AE002A98C460B236344002219006059BC
:1024F00008F0F0F8012812D080220023A0599200A1
:102500000CA908F03BFC0028EBD02821002302AAEC
:10251000521813540CA92000FFF724FFE1E702AB87
:10252000DB7A022B59D029D8002B51D0282398468A
:102530004246FF21273BA354484622F093F84346E6
:10254000E35C002B3DD0029A06AB83CA83C3236AA7
:102550009846002B0FD006A82DF058FD42460300E8
:1025600000201268616A019001300090D2684046F4
:10257000934606AAD84707F0D1F9BDE7032BFAD155
:1025800053460693E36A9B46236B984605930F2BAD
:1025900031D8012B2BD15B461B7802AA1376524609
:1025A00043464146079300232000535406A9FFF7F2
:1025B000E9FD06985045DED00899013104F040FC51
:1025C000D9E7039A06AB83CA83C312781A70BEE7B1
:1025D000282200219046A354AEE7282301229846E2
:1025E000E35C53404246A3545B42D9B2A4E7002BBC
:1025F000D5D0504607E0002205A906A825F040FAEC
:10260000059B069008934246594604F007FC059B3B
:10261000069A9846C4E78D239B009D44F0BCBB46B8
:10262000B246A946A046F0BDCCFDFFFFD81303106B
:10263000E41303109823C05810B51400002804D0E8
:10264000002308F0AFFA844200D110BD9E23064A51
:1026500006495B00064804F07BFE064804F078FE5D
:10266000054804F0CDFCF0E77A1503105012031072
:10267000D40F031030140310D00F031010B5040052
:10268000024B0360FFF74CFA200010BD2C1703101B
:1026900010B50400044B0360FFF742FA20000C2140
:1026A00004F0CEFB200010BD2C170310F8B5836892
:1026B00004000D00002B13D02A231B4A1B491C4881
:1026C00004F046FEA1681B4804F042FE1A4804F0DC
:1026D00097FC2B6801222800A1685B699847F8BD28
:1026E0000B6808009B689847144F06003900FEF7F6
:1026F000C3FD06F0B1FFA060002807D03A0031000A
:10270000FEF7C6FDA368002BE9D0D5E72623064ACD
:1027100006490B4804F01CFE0A4804F019FE06485E
:1027200004F06EFCEEE7C046E616031050120310EC
:10273000940F0310FC160310D00F0310181703108A
:10274000D40F0310BC1303104068190010B5002803
:1027500002D0029AFFF76EFF10BDC04670B50400AC
:102760000D00FFF7D7F9034B2000236000236560BD
:10277000A36070BD2C170310D0231B061B687B4A77
:1027800099005258F0B5574692465A1E934130224E
:10279000DE464E4645465B421A401300744AE0B599
:1027A000944683B063440193724B884608260F27F2
:1027B0009B463500083DEA081300019908339B0049
:1027C0005C58002C22D0012399465346002B27D079
:1027D00039002140274213D05B4642469A584B4667
:1027E000AB401A420CD1072208002A4092009040C8
:1027F0000200EB0860483C339B001A502800D04789
:1028000024090135002C01D0AE42E1D80836282E2B
:10281000CFD103B0F0BCBB46B246A946A046F0BD3E
:1028200039002140274206D00133AB40454651488C
:102830004059184276D02309E8D00F2211001940E0
:102840001A420DD04546F31F0E3A9A404948405966
:10285000104205D1DB08484A3C3309019B009950DE
:10286000230AD3D00F22110019401A420DD0454639
:10287000B31F0E3A9A403F484059104205D1DB0839
:102880003D4A3C3309029B009950230BBED00F22D6
:10289000110019401A4236D1230CB7D00F22110073
:1028A00019401A4243D1230DB0D00F221100194014
:1028B0001A424BD1230EA9D00F22110019401A42FF
:1028C0000DD04546B31E0E3A9A402A484059104250
:1028D00005D1DB08284A3C3309069B009950240F98
:1028E000721E002C00D191E70123404693402149FC
:1028F0000958194200D089E7D3083C331E4A2407FF
:102900009B009C5082E74546731F0E3A9A40194837
:1029100040591042C0D1DB08174A3C3309039B00E1
:102920009950B9E7144B3C329200D15083E74546A9
:10293000331F0E3A9A400F4840591042B3D1DB087A
:102940000D4A3C3309049B009950ACE74546F31E01
:102950000E3A9A40074840591042ABD1DB08064A6C
:102960003C3309059B009950A4E7C0462031002064
:102970000041014034F4002000400140094A10B5F4
:1029800094464024830063441A68C0006240803447
:1029900014408022520113431C60034B9C46604448
:1029A000416010BD04C0014000400140074B800061
:1029B0009C4660440368C90092000A435A400C23B5
:1029C0001A4080235B0103431A60704704C0014032
:1029D000084B80009C466044002905D080230222D9
:1029E0009B0103431A607047C02302229B010343EB
:1029F0001A60F8E704C00140D0231B061B6830B5FD
:102A00000500584243412F205B4283430D48EC08A8
:102A10008446072028408000814020000A4D3C3039
:102A200063448000A40041511B19002A04D0802275
:102A300092011343196030BDC02292011343196003
:102A4000F9E7C0463041014000400140F8B51D00A3
:102A5000D0231B061C680600604244412F206442BC
:102A600084432748F708844607203040800081408F
:102A70003800244E3C3064448000BF008151E4198A
:102A8000002A11D080229201224311601C681E4E40
:102A9000A400A359002B15D0002D25D0A55101214C
:102AA0000D2000F05BF9F8BDC022920122431160B5
:102AB0001C68154EA400A359002B0CD0002D18D073
:102AC000A551F0E7002DEAD000220D200F49A551B5
:102AD00000F0A6F9E3E7002DE5D000220D200B4918
:102AE000A55100F09DF9DEE70D20084900F092FAAB
:102AF000D4E70D20054900F08DFAA551D3E7C04673
:102B00003041014000400140203100207927001071
:102B1000D023F0B5C6461B0698461B680C4F9B0099
:102B20001600FA5804000D0000B5104209D1290022
:102B300014430D203200FC5000F072F980BCB846FE
:102B4000F0BD01F0C3FD43461B689B00FA58EEE759
:102B500034F4002010B504000D2000F05BFAD023FF
:102B60001B061B6802499B005A58A2435A5010BDCD
:102B700034F400200123D022834012069362936133
:102B8000094A40219446830063441A68C0004A40C1
:102B9000803111408022520113431960034B9C463F
:102BA000052360444360704704C001400040014079
:102BB000024B18688007C00F7047C04600C006402F
:102BC000EFF3108072B6034A1368002BFCD0BFF3FA
:102BD0005F8F70472C0100D0BFF35F8F0022024B44
:102BE0001A6080F3108870472C0100D070B5EFF3A5
:102BF000108C72B60D4D2B68002BFCD0BFF35F8F8D
:102C00000724CB08C618C05C01230C40A3401C005D
:102C10000440034207D118433070BFF35F8F2C602C
:102C20008CF3108870BD100001F032FD2C0100D033
:102C3000F8B54746CE46884680B5EFF3108C72B69D
:102C4000214D2C68002CFCD0BFF35F8F9A422CD80A
:102C5000D4080727055D061901241740BC402C4203
:102C60001FD007210127894609E0D408055D061910
:102C70004C4639001440A1400C00294211D00132C9
:102C80009342F2D201204042BFF35F8F00220E4BED
:102C90001A608CF3108800280FDBC0BCB946B04620
:102CA000F8BD254310003570EEE7BFF35F8F0023BA
:102CB0002B608CF31088012040424346002BECD05F
:102CC000089801F0E5FCC0462C0100D030B5EFF3C8
:102CD000108C72B60A4C2368002BFCD0BFF35F8FB8
:102CE000072301220B409A40CD08435D934343558F
:102CF000BFF35F8F002323608CF3108830BDC04684
:102D00002C0100D00021044B044ABFF35F8F02C3A3
:102D10009342FAD17047C046000100D0800100D034
:102D2000044A1078431CDBB2172B00D91023137010
:102D30007047C046B41D002010B5064B064C82B04B
:102D40000100009318221F232000FFF771FF02B03B
:102D500010BDC0463C1703103031002001238340D2
:102D6000002904D0034A1360034A13607047034AE2
:102D70001360FBE780E200E000E100E080E100E0BA
:102D800001238340014A13607047C04600E200E01F
:102D9000084B10309B688000C358002B07D0064AB0
:102DA00000209B1A2F229A424041C0B27047002057
:102DB000FCE7C04600ED00E0B81D0020024B1030DB
:102DC0009B688000C058704700ED00E070B50D00B2
:102DD000EFF3108672B60F4A1368002BFCD0BFF3D6
:102DE0005F8F0D4B10309B6884001B590B4A934238
:102DF00003D09D4201D001F069FC074B9B681D5137
:102E0000BFF35F8FBFF35F8F0022024B1A6086F320
:102E1000108870BD240100D000ED00E0CD0100104D
:102E2000F0B557464E46DE464546E0B585B006004D
:102E300000911700EFF3108B72B66A4A1368002BEB
:102E4000FCD0BFF35F8F0025674B5D579A46002D7E
:102E500000DA8BE06B00654C01935B199B00984690
:102E6000A146C1444B4652469B7910361370604BC5
:102E7000B6009B6899590B1B2F2B33D95D4B994298
:102E800000D0ACE0019B42469C465B4B6544AD00E4
:102E900063535A4B0232A218043B9B1A1B05584A33
:102EA0005B0D651913436B80564B0121AB80FF23EB
:102EB000AB71009BEF71AB604B460B4319004C4B61
:102EC0009B689951BFF35F8FBFF35F8F0022454B23
:102ED0001A608BF3108805B0F0BCBB46B246A94619
:102EE000A046F0BD01200A008243D3798C46BB4244
:102EF00031D84546130044491B1B5B415943090D1A
:102F00003D4B63533D4B02356519043B5B1B1B0571
:102F10003B4D5B0D2B43AA464D466B800425AC46CA
:102F20005546E044131F44441B1B1B055B0D1D430A
:102F30004B46997100999D8099604946DF71334BEA
:102F400001431360BBE75800C01880002018C17906
:102F5000B94211D902000623D356002BF3DA0293AB
:102F6000131D9A462A4B6146039319E001F0AEFB0C
:102F7000002553465D576DE7908802934005131D69
:102F80009A46031561469C464046D4446346043045
:102F90002018181AE0230005400D1B021843039067
:102FA00004235B429C46E14450464B461B1A1B05DA
:102FB0005B0D9C46124B9571984663464046034311
:102FC0009380019B5A199200039BA418A380029B33
:102FD0000E4AA371009B2260E771A3606FE701F0C6
:102FE00075FB4FE7240100D0550D0320B81D0020CC
:102FF00000ED00E0CD01001000A1FFFFE81D002062
:1030000000E0FFFF01BDFFFFAAAA000001488047C2
:1030100001BD0000F0B5DE4657464E464546E0B5D8
:103020000C0083B0EFF3108872B65D4A1368002B72
:10303000FCD0BFF35F8F5B4B5B499A680300103392
:103040009F00D5598D4239D0A5424AD0574EAA1B70
:103050002F2A33D801229246824091464846544A4C
:103060001268104001904846524A1060BFF35F8FCB
:10307000EFF305829346002A35D0934201D001F048
:1030800025FB2A0053469A439068844208D175E094
:103090004B005B189B00F3189868A04234D01A00CC
:1030A000062151560029F3DA844253D0019B002BAC
:1030B00026D04A46404B1A603D4B1A60394B9B68FC
:1030C000DD51BFF35F8FBFF35F8F0022344B1A6077
:1030D00088F3108803B0F0BCBB46B246A946A046B0
:1030E000F0BD0D00EAE72A0053469A4390688442F7
:1030F000D6D1062010561300002809DA0D0031E061
:103100004A462C4B1A60D9E706201856002822DBC5
:1031100042001118890074188A46A1689960E17903
:10312000D971062161569971002925DBA488F11A0D
:103130006405241554440919E0240905490D2402A5
:103140002143998013181D4A9B001178F318997137
:103150001070ABE713005946002914D1FF3191716B
:103160001749918015490A789A71164A9B1B5B4151
:103170005A43120D0A7099E71349E2E706201056E8
:1031800013000028C4DA114A1149D21A083A500231
:10319000400D014399800F4952080A43DA8085E7C0
:1031A000240100D000ED00E0CD010010B81D00208A
:1031B00000E100E080E100E080E200E0550D032046
:1031C00001BDFFFFAAAA000001BD0000F21D002002
:1031D00000F0FFFF00F8FFFF70B5EFF30581012459
:1031E0000443EFF3108C72B6214A1368002BFCD015
:1031F000BFF35F8F1F4B05001F4AED1A6D416A43F5
:10320000120D1E4D8900AE6852B27658A6421CD0EF
:103210000621595691421CD012215956914222D072
:103220001E215956914220D02A21595603249142F9
:1032300010D0134B19781A708171BFF35F8F002281
:103240000B4B1A608CF3108870BDAB680D4C5C5052
:10325000EFE700246100091989005B18FF219971CB
:1032600009499980E5E70124F4E70224F2E7C04622
:10327000240100D0B81D0020AAAA000000ED00E043
:10328000550D0320CD01001001BDFFFF054B064A7F
:103290001360064A136053609360D36013615361F7
:1032A000936170478080808000E400E004E400E0E7
:1032B00010B5084B084C82B0010000930022052392
:1032C0002000FFF7B5FC002801DB1F23181A02B00D
:1032D00010BDC04658170310610D0320024B9C46D9
:1032E00061448900016070474000003410B504005B
:1032F000FFF716FD01002000FFF7F0FF01235B42FE
:103300006360BFF35F8F10BD10B50400FFF708FDC9
:1033100001002000FFF7E2FF01235B42636000230E
:103320002372BFF35F8F10BD10B504000120FFF7BB
:1033300003FD034BC3189B002360BFF35F8F10BDD9
:1033400040000034034B9C46614489000160BFF398
:103350005F8F70474000003483680B4810B5844687
:10336000614462441201090159189B185C684A685B
:103370000120944201D802D00020C0B210BD1A68CA
:103380000B689A42F9D8F7E7FFFFFF0F074810B51F
:103390000268EFF3108172B61368002BFCD0BFF304
:1033A0005F8F06F0A3FB0020002110BD5CF500201C
:1033B000F8B5574645464E46DE46E0B598460CAB56
:1033C0001C780DAB1B78070091469A460568002CC7
:1033D0005ED1AC7B002C3BD0660029683619033ED9
:1033E00089194B78AB73002B00D1EB7300238B70E2
:1033F0004B700B702D4BE218BB6812019B184A46AC
:103400001A6042465A600A9A9A600B9ADA60002360
:103410008B704B700B706B7B9B46002B2BD022006C
:103420005946A8686B6898472A68002816D05B46FA
:1034300058465B005B449619033BB070D118D35CCF
:10344000002B00D073705B460C706B735C4513D01F
:10345000F0BCBB46B246A946A046F8BD5B465B0041
:103460005B44033BD3189C709119925D002A00D0F5
:103470005A705B460B706C734A464346387D00F0C9
:10348000E5FB051E0AD10E9B002BE1D01D70DFE786
:10349000660029683619033E8919ABE75346002BAD
:1034A000F1D12100386800F0F5FDECE7FFFFFF0FD8
:1034B000F0B5DE4657464E4645460023E0B58BB094
:1034C0000893684B8200D45800239B46099000F073
:1034D00029FB02000B006068EFF3108A72B65646B3
:1034E00001680029FCD0B246BFF35F8F21684F7B93
:1034F0008C46002F2ED0A5685B49A9467918090192
:10350000894449460868496805000E00AD1A9E4185
:10351000002E5FDD02000B00099800F097FB0023EE
:103520000022994600230692079300239846636879
:10353000BFF35F8F5A461A608AF310884346002B08
:1035400012D10028C3D10BB0F0BCBB46B246A9468D
:10355000A046F0BD0023002299460023069207935F
:10356000002300209846E2E7089B494618023843AA
:10357000C047626805000E00EFF3108A72B6136848
:10358000002BFCD0BFF35F8F002E41DB2B003343B9
:1035900002D02369002B56D12368D97B002905D09E
:1035A0001A68480041185218033A57709A7B002A4B
:1035B00000D19F73DF73E268013FD35D0133D355C0
:1035C0005B4623616368BFF35F8F5A461A608AF3D4
:1035D00010887CE7002E02D1002D00D09AE7002150
:1035E000604600F0D5FC4B461A685B68069207936C
:1035F0004B469B6898464B46DB689946E368DB1967
:10360000013B1B7808931B020343236100208EE7D4
:103610002369002BC0D0069A079B8021521BB3411F
:1036200009068B4202D30122104B52420021049121
:1036300001310391494601914146200002970091D2
:10364000FFF7B6FEBCE700F06DFA2A00330012184F
:103650004B41802109068B42E8D30122034B5242A1
:10366000E4E7C046CCE10020FFFFFF0FFFFFFF7F34
:1036700010B5144C6368002B04D00A211248FFF7E0
:103680002DFE10BD2300114A1021206800F096FB8A
:10369000032000F03BFA032000F040FB03200C491C
:1036A00000F08EFAFFF73CFB0A4B9C460323237580
:1036B000D0231B061B6860446375074B8000606065
:1036C000DC60DAE7001E00205CF5002059330010B2
:1036D000B134001040000034CCE1002000487047B5
:1036E000001E0020F0B557464E464546DE46E0B582
:1036F00085B0019310AB1B780600039300239A4614
:10370000984600927268EFF3108B72B61368002B24
:10371000FCD0BFF35F8F3568AC7B002C00D16FE02D
:1037200067002B683F19033FDB195A78AA73002AF8
:1037300000D1EA734B4AA118B268090152180098E7
:103740000199106051600E9991600F99D1604246C5
:103750009A705A701A706B7B9946002B00D170E0FA
:1037600022004946A8686B6898472A6800285BD001
:103770004B4648465B004B44D719033BB870D11801
:10378000D35C002B00D07B704B460C706B734C45A8
:1037900058D0F3681B19013B18787368BFF35F8F2B
:1037A00042461A608BF310885346002B08D1000262
:1037B000204305B0F0BCBB46B246A946A046F0BDCA
:1037C000039B002B4BD00E9B00200F9998470300C2
:1037D00004000D000B4342D000291ADA009A019B25
:1037E000121BAB410092019380221206934204D334
:1037F00001231D4C5B4200930194039B9A4681E791
:103800007368BFF35F8F1C608BF310880120404208
:10381000CFE700F087F9802224184D41120600946A
:1038200001959542E9D3E3E74B465B004B44033BEC
:10383000D3189C70D119D25D002A00D05A704B4623
:103840000B706C73307D009A019B00F0FFF982468B
:1038500000289ED02100306800F01CFC99E7002071
:10386000A7E7C046FFFFFF0FFFFFFF7F407D7047C8
:10387000F0B54746CE46040080B50D009626764248
:10388000F71736196F4185B08F4215D812D000F066
:1038900049F932003B00121A8B41002B16DC002B39
:1038A00039D02000290000F07BF905B0C0BCB94632
:1038B000B046F0BD8642EAD90026002700F032F972
:1038C00032003B00121A8B41002BE8DD00230293EB
:1038D0000193124B3200009311483B00FFF702FFA7
:1038E0000028DEDBB846B1460E4F0F4E7B6A984586
:1038F00004D8BA6A4A45D4D29845D2D13268EFF397
:10390000108172B61368002BFCD0BFF35F8F3000BC
:1039100006F0B8F8EAE7002AC3D0D7E78D330010E5
:10392000001E0020004005405CF5002070B5060038
:1039300000F0F8F8FA2204000D0000233000002106
:10394000920002F065FF8023001969411B0699422D
:1039500002D3012002494042FFF78AFF70BDC046F2
:10396000FFFFFF7FF0B5EFF30583CE46474680B5F6
:1039700005000C0085B0002B0DD0324A0020536AA0
:103980009C4203D8926A0130AA4232D305B0C0BC2F
:10399000B946B046F0BD2C4E029301932B4B02006A
:1039A000009330000B00FFF79DFE031EE5DD20BFF6
:1039B0007168EFF3108772B60A68002AFCD0BFF373
:1039C0005F8FDAB294463068427B624516D0FF22A0
:1039D00001681A408946510088464946904441444E
:1039E0000339897800290BD13269934210D13161B2
:1039F0000EE0E31A5A1E9341D8B2C7E7FF221A40DD
:103A0000F1681B0A8A18013A1278DBB29A4214D084
:103A10007368BFF35F8F00221A6087F31088094B29
:103A200000205A6A9442B1D89B6A0130AB42ADD2B1
:103A3000A41A631E9C41E0B2A8E7614600F02AFB8D
:103A4000E6E7C04600400540001E00208D33001010
:103A5000F0B5EFF30582D6464F4646461000C0B596
:103A60001038EFF3108872B6214C2368002BFCD07D
:103A7000BFF35F8F0123190081401E4D1F00696352
:103A8000AA461D4D29601D4D2E78AC463500C54017
:103A90002F402B4215D053465F6A194B8500EB58D7
:103AA0009F4218D36246174B8E43EB581670BFF3F4
:103AB0005F8F0022226088F31088002B06D0984781
:103AC00004E0BFF35F8F276088F31088E0BCBA463C
:103AD000B146A846F0BD0C4B92009C466244136868
:103AE0001360BFF35F8F0023236088F31088EDE736
:103AF000280100D0004005403C700540600D0320C7
:103B0000F4F50020102F0020D03F054010B5034BE6
:103B100001001800024AFFF769F810BD4C0D0320A0
:103B200080170310034B596A0A00986A596A8A423F
:103B3000FAD170470040054070B504000D00174AE7
:103B4000536A1900966A536A8B42FAD13000190001
:103B500024184D41AB4216D813D0104B2A005B6A93
:103B60009D4203D90D494B6A9342FCD3934207D13E
:103B70000A4A02E0516A994202D1916AA142F9D3FC
:103B800070BDA642E9D9054B5B6A1C005A1CEFD0F8
:103B9000012201246442E5175242E3E70040054058
:103BA000064A536A9942FCD807D1044B02E05A6A8C
:103BB000914202D19A6A8242F9D37047004005408F
:103BC00070B504000D00EFF3108672B61A4A136840
:103BD000002BFCD0BFF35F8F002D1BD02000FFF720
:103BE000EDF8164981420AD02000FFF7EFF80121D5
:103BF0002000FFF7B3F80123A340114A1360114BD3
:103C0000A400E550BFF35F8F00220B4B1A6086F3D0
:103C1000108870BD0121A1400A4BA200D5500A4B6B
:103C200020001A788A4305491A70FFF7F3F900213A
:103C30002000FFF793F8E5E7280100D0513A001083
:103C400038600540102F0020600D0320F0B54F466E
:103C5000D6464646C0B507002B4C616A0D00A66AE1
:103C6000616AA942FAD18B4208D805D00120E0BC94
:103C7000BA46B146A846F0BDB242F7D9EFF3108A72
:103C800072B6224801680029FCD0BFF35F8F01257E
:103C9000BD401F491C4C8846097889462943C9B252
:103CA0008C46414660460870391D890065630A519B
:103CB0001849B8004350216A0020294219D0616A8E
:103CC0000800A66A616A8142FAD18B4219D801D1F3
:103CD000B24216D8CC450BD00B4B1F221D625D6340
:103CE00001233A4093400C4A136043464A461A70F7
:103CF0000120BFF35F8F0022044B1A608AF3108803
:103D0000B5E70020F5E7C04600400540280100D097
:103D1000600D0320F4F5002080E200E0EFF3108C4A
:103D200072B60A490B68002BFCD0BFF35F8F0123EA
:103D30008340074A0748136202789A430270BFF330
:103D40005F8F00230B608CF310887047280100D030
:103D500000400540600D032070B505000E00140002
:103D6000002923D0002A12D080686B689847296800
:103D700000280ED063001B197200033B9219CB1868
:103D8000033A9E7088188A5C002A11D104703000B2
:103D900070BD73009B196200033B1219CB18033AE4
:103DA0009C7088188A5C002A05D106702000EFE715
:103DB0005A700470EBE75A700670F7E730B583600D
:103DC0000023CCB243730133047342608373C47322
:103DD0000D000068012C06D9421C0133DBB21370C0
:103DE00003329C42F9D1FF2129404B005B18C018D7
:103DF00000230338437030BD70B505000C1E07D09A
:103E0000630001681B19033BCB185A78002A01D1C3
:103E1000200070BD500080180338091800204E782B
:103E20004870210058702800FFF796FF3100040009
:103E30002800FFF7E1FF0600002C26D00028E7D07D
:103E400021003200A8686B689847296800280ED0C6
:103E500073009B196200033B1219CB18033A9C7044
:103E600088188A5C002A00D05A700670D0E7630078
:103E70001B197200033B9219CB18033A9E708818E5
:103E80008A5C002A00D05A7004703400C0E7C04633
:103E9000F0B557464546DE464E46E0B50D006F008C
:103EA00001687F19033F0400C85D83B00192CA19FD
:103EB000002850D043001B18033BCB185E78B44653
:103EC000002E1AD1019E002E42D0E67B002E04D097
:103ED00073009B19CB18033B5D70A37B002B00D1B3
:103EE000A573E57300282FD10023537003B0F0BCF5
:103EF000BB46B246A946A046F0BD72006244033AF2
:103F00008A185178884600215170894659703200CC
:103F100001002000FFF720FF43468246002B07D018
:103F20005B0021684344033BCB185A78002A16D122
:103F3000424651462000FFF70FFF2168019BCA1936
:103F4000002BC2D10028CFD043001B18033BCB1855
:103F500000219970C8E7019B002BB6D1C4E750003F
:103F600080180338091848788346484648705870C6
:103F700041462000FFF7F0FE594680462000FFF73B
:103F80003BFF414602002000FFF7E6FE8046CFE7F8
:103F9000F0B557464546DE464E46E0B583B0019142
:103FA000457B04006F0000687F19033FC15DC219A3
:103FB000002952D04B005B18033BC3185E78B4460F
:103FC000002E1CD1019E002E44D0E67B002E04D092
:103FD00073009B19C318033B5D70A37B002B00D1BA
:103FE000A573E573002931D1002328005370617354
:103FF00003B0F0BCBB46B246A946A046F0BD720075
:104000006244033A821850788046002050708146FE
:10401000587032002000FFF79FFE43468246002B77
:1040200007D05B0021684344033BCB185A78002A31
:1040300017D1424651462000FFF78EFE019B01003A
:104040002068C219002BC0D10029CDD04B005B18CD
:10405000033BC31800209870C6E7019B002BB4D126
:10406000C2E750008018033809184878834648464C
:104070004870587041462000FFF76EFE5946804652
:104080002000FFF7B9FE414602002000FFF764FE62
:104090008046CEE770B5050000292CD0437B8B42CB
:1040A0002ED04C0000686418033C0419A278002A42
:1040B00021D053009B18033BC25CC6188A4202D130
:1040C0001BE0002A08D053009B18033BC3185A7802
:1040D0008A42F6D162785A70002301222800A37028
:1040E0006370FFF7D5FE697B02002800FFF734FEFE
:1040F0006873012000E0002070BD63783370EBE747
:1041000001221900FFF7C4FEF2E7C04610B50C20EB
:1041100082B000F0B5F9FEF74BFD002810D08B4BB4
:104120008B488B498B4A186059609860D960186138
:1041300059619861D961186259625A6202B010BD22
:10414000854CA06700F0F2F90122844B1A60636C81
:10415000012BFCD10322824B1A607F4A936B012B07
:10416000FCD1013301217F4A7F480093043300F0E2
:1041700037F905237D4A009301217D4800F030F98D
:104180007C4B5A68FF2A02D8802252005A60802253
:10419000734B6E4C12011A602169002907D06069C7
:1041A00001F036FE013043001B18033BFDD2E02234
:1041B000704B714819680A40026002221968514028
:1041C00001320A40042102609A681142FCD0802129
:1041D0006A4A09011160802252005A60684B2361CB
:1041E000684B5968FF2900D85A60032201215B4BB4
:1041F0001A60644A93681942FCD0E02310680340B7
:1042000061480360126803234A40022113405D4A5B
:10421000036093681942FCD080215C4B090119604E
:1042200080215B4B4900516063615A4B5A68FF2AF9
:1042300000D859608022584B12011A60E1690029A8
:1042400007D0606901F0E4FD013043001B18033B17
:10425000FDD2E0234F4A11680B4050490B6080218A
:104260004F4B090119608021394B49005160E361CE
:104270004C4B5A68FF2A00D8596080224A4B1201E1
:104280001A60216A002907D0606901F0C1FD013080
:1042900043001B18033BFDD2E023424A11680B4048
:1042A00042490B608021424B0901196080235B0069
:1042B00053608022264BD20223623E4B59689142C2
:1042C00000D25A6080223C4B12011A60616A0029B8
:1042D00007D0606901F09CFD013043001B18033BCF
:1042E000FDD2E023334A11680B4034490B60802132
:1042F000334B090119608023DB025360154B636265
:10430000304B5A68FF2A02D8802252005A6080221D
:104310002D4B12011A60A169002907D0606901F0D4
:1043200077FD013043001B18033BFDD2E023254AF3
:1043300011680B4025490B608021254B090119604C
:1043400080235B005360124BA361F7E678240020C2
:10435000006CDC021BB70000008000403CB0004055
:1043600030B00040002F685900800240008C864722
:1043700000C00240308000403090004030A000403B
:10438000001BB7003C8000403C9000403CA0004037
:10439000405973075480004054B00040549000408E
:1043A00054A000406080004060B000406090004039
:1043B00060A000406C8000406CB000406C900040F9
:1043C0006CA000404880004048B000404890004049
:1043D00048A00040014B8000C0587047782400205E
:1043E000F8B5040021481D0017000E0001F010FD73
:1043F0000100380001F00CFD069B29041B03194342
:104400002368002B20DB1A4B1A4DE21853425A4105
:1044100080235B019C461203174B62441A60174BC2
:104420001A601700AB689F43FBD1C022231D920185
:104430001A4321232660A06013602368002BFCDA56
:104440000823E1601360F8BD3F2322681340B342A4
:10445000D9D1A3681B051B0D8342D4D1EE22E3689A
:10446000D20213408B42CED1EDE7C046001BB7000D
:104470000040FDBF00C0004000E0004000F00040F0
:104480008023024A9B000343D362704700800540AB
:1044900010B580241C4BE4051C6000281AD00123B1
:1044A0001A4C18431A4BDC611A4C44401C62596286
:1044B00098628021144BC905196017481749086094
:1044C000E021C9041960002A07D18022144B12068A
:1044D0001A6010BD0E4BD861EBE753019B1A9B008D
:1044E0009A18802312015B049A4209D213000D49E5
:1044F0000B60074B5A608022094BD2051A60E8E72F
:10450000094B1A00F3E7C04600B00540D3C007B01E
:10451000008005402D3FF84FFCFF010008200140BE
:1045200000A00540F4440020FFFFFF00AA23064A34
:104530001B0113602F230549D360054B1960536895
:10454000002BFCDA7047C0460040024000B0FA0081
:10455000006002402C4B2D4A70B51A602C4A2D4B3E
:104560002D491A6014008B689C43FBD12B4D2C4EB7
:10457000B54208D2013E761BB60808CD9847230005
:104580000134B342F9D1FFF7C1FD264A214B1A602D
:10459000214A9368DB43DB01DD09002BF9D140227E
:1045A000214B224C224E9A675A671A67DA66B44248
:1045B00008D223682000002B20D00C34FEF7A4FE84
:1045C000B442F6D31B4C1C4EC022B168200002F04E
:1045D00025FCB460FEF796FBFEF758FEFFF748F89F
:1045E000164C174EB44208D2013E361BB60808CC12
:1045F00098472B0001359E42F9D170BD0834FEF773
:1046000075FEB442D5D3DDE700E00040BFCDFBFE30
:10461000FE7F3C0000F0004000C000402824002045
:1046200038240020FFFFFF0100F001401824002083
:10463000282400200000002000ED00E038240020A5
:104640005424002000BEFDE7094A0300106800283A
:1046500005D00849C3188B4207D813607047064835
:104660000449C31810608B42F7D901204042F5E796
:10467000C040002000000420640D0320002070478B
:10468000012040427047C04610B5FFF7DBFFC0462F
:104690000FB400B5084883B002F0B2FC049B002BB5
:1046A00007D005A91800019101F032FB034802F080
:1046B000A7FC0120FFF7C6FFA4170310F4D90610CA
:1046C00010B50148FFF7E4FFB417031010B5014817
:1046D000FFF7DEFFC41703109A4200D288547047D8
:1046E0007047C046F8B557464546DE464E46E0B5EB
:1046F00098460A9B06009A460D9B0F0093461500AC
:104700009B0710D10B9B0C9A93420CD213005C4672
:104710000B9A9D1A5D442200434601343900202043
:10472000B047A542F7D10B9C6319002C09D01D009E
:1047300053462A1B013C185D39004346B047002C04
:10474000F6D10D9B9B070ED55B46EC1A0C9BA34242
:1047500009D999462A004346390020200134B04740
:104760000135A145F6D82800F0BCBB46B246A946A3
:10477000A046F8BDF0B54F464646D646C0B584B013
:1047800098460EAB1B7894469946129B0D9C109F41
:10479000119E9A0724D4002E6AD1BC4220D2012255
:1047A0001A409246202C00D1CBE00C9A551E3022A4
:1047B00001E0202C30D001342A55A742F9D85246C6
:1047C000002A0DD0B4420BD20C9A551E3022202C58
:1047D00002D126E0202C61D001342A55B442F9D10F
:1047E000DA0634D55A0562D4002C5CD10F9A102A0F
:1047F00000D191E0022A00D1A1E030220C9C22706D
:1048000001244A46002A5CD15A0700D47DE02B22BD
:104810000C9D2A5501341CE05246002A02D0202E5D
:104820003CD92024DA0614D55A0512D4202F00D101
:1048300097E0202E3BD120261F2234000F9D102D03
:1048400000D181E0022D4CD030250C9FBD54202C8E
:10485000D7D103930C9B6246009302964346019482
:10486000FFF740FF04B0E0BCBA46B146A846F0BD31
:10487000012215001D40AA461A4227D04A46002AA6
:1048800033D10C321A4230D1BC429BD2202C00D002
:104890008BE7202EC5D8DA06A4D4DAE72024DA067E
:1048A000D7D55A0503D4A74221D0B4421FD00F9ABE
:1048B000102A21D0022A10D0202CCAD02200013484
:1048C000C2E72D220C9D2A550134C2E7BC4200D319
:1048D00086E7202C00D068E7E1E7202CB9D0220041
:1048E000013462250C9FBD54E6E7013ECCE7621E11
:1048F000012C00D17AE7A1E79A0616D4202CA8D083
:1049000078220C9D2A550134D6E71A07A1D520221A
:104910000C9D2A5501349CE79A060ED478220C9CF3
:1049200022703022627002246BE7202C91D058252F
:104930000C9A121915700134BEE75822EFE7622273
:10494000EDE7002AA7D1AAE7023C9D0604D478250A
:104950000C9F3D551400B1E758250C9F3D551400A0
:10496000ACE71F226AE7C04610B5002800D110BD91
:1049700002F0FAFAFBE7C0460B0010B5002802D09F
:1049800049681B68984710BDF0B557464E464546E6
:10499000DE46E0B599B08246894690460993229A50
:1049A000239B1000190001F0E4FC002800D0C8E0AF
:1049B000229823990122D54B524201F0D5FC0028C0
:1049C00000D0BEE0229823990122D14B524201F03F
:1049D000BDFC002800D0B4E02298239900220023D7
:1049E00001F0B4FC002800D0E9E1229E239F80233F
:1049F000269ADB001A400D92269A1A4201D106230C
:104A000024933B00334300D0B4E0269B1B0500D524
:104A1000BFE1002300240A930B94002304250C9388
:104A2000259B0024AB4200D95C1B0223269A1A4026
:104A30000D92269A134203D06B426B415B421C409D
:104A40000C9B002B07D00A9A0B9B3000390001F019
:104A500024FC06000F00229823990022002301F075
:104A600075FC002803D0802109067B181F00269AB8
:104A7000A84B009601971340099E0493249B03942E
:104A80000293424633004946504600F0A7F904001D
:104A9000002D67D02020269A4946024013005A4232
:104AA00053415B42621C18400A9233002200453099
:104AB000D0470C9A6F1ED317D4185C40D30F9B4677
:104AC000002501E0202D13D008AA94461F232000C2
:104AD00063440A2101355E1901F09AF930313170D1
:104AE00020000A2101F094F926000400092EE9D8DB
:104AF00005230693002304930A3303935B46099E20
:104B0000029310AB0A9A009349463300504605972A
:104B10000195FFF72FFE0D9A0400002A22D042468D
:104B2000851A259AAA421DD9B0465746160022007A
:104B30004346494620200135B8470134AE42F6D8F5
:104B400010E0269B42460493259B49460393249BF1
:104B500050460293229B239C00930194099B00F0F2
:104B60003DF90400200019B0F0BCBB46B246A9468E
:104B7000A046F0BD684B78009C46400D604401F0B3
:104B80000BFC664A664B01F0A2FB664A664B01F0DD
:104B90007FFB664A3B031B0B1A4304000D00644B6A
:104BA00011003000002201F06EFB624A624B01F0FE
:104BB0008EFB02000B002000290001F069FB01F0D0
:104BC00003FC0C9001F0E8FB5C4A5D4B04000D0017
:104BD00001F07DFB00225B4B01F05AFB01F0F4FB7E
:104BE000594A8346594B2000290001F070FB04000C
:104BF00058460D0001F0D0FB554A564B01F067FBBB
:104C000002000B002000290001F03DFB02000B0018
:104C10000A900B9101F05BFB04000D000A980B99C0
:104C200002000B0001F034FB00220E900F914A4B62
:104C30002000290001F031FB0022484B01F028FB45
:104C400002000B002000290001F027FB0022444B4A
:104C500001F01EFB02000B002000290001F01DFBEB
:104C60000A9A0B9B0D0080210400C905002001F069
:104C70000AFB02000B002000290001F009FB394C5F
:104C800002000B000E980F9901F007FB5C44002214
:104C9000264B01F0FDFA2305002201F018FB040069
:104CA0000D0002000B00300039000A940B9501F052
:104CB0004DFB00285ED123002A00C6250C996331E4
:104CC0008D42AD4126996D420435090500D4A7E611
:104CD000134364D030003900234A244B01F03CFBDD
:104CE000002807D0002230003900214B01F02EFBB4
:104CF000002854D1249B002B00D191E60D9B5A1E15
:104D00009341249AD31A24938AE6C046FFFFEF7F8B
:104D1000FFFFEFFFFFF7FFFF01FCFFFFFB799F5055
:104D20001344D33FB3C8608B288AC63F0000F03FCE
:104D30000000F83F61436F63A787D23F71A37909F1
:104D40004F930A400000E03F1655B5BBB16B0240DF
:104D5000EF39FAFE422EE63F00002C4000002440CE
:104D600000001840FF0300002D431CEBE2361A3F01
:104D700080842E410C9B0022013B0C932000164B9B
:104D8000290001F08AFA0A00010003000A910B923F
:104D900093E7002300240A930B9400230C93249A96
:104DA0000C9B9A4214DDD31A013B24938023269A4C
:104DB000DB001A430023002526920C9330E6802264
:104DC00012069446229B1E00239B63441F000EE69E
:104DD00000232493EAE7C04600002440F0B545468E
:104DE000DE464E465746E0B595B08B46904699460E
:104DF0001E9A1F9B0A9019001000209D01F0B9FA1D
:104E0000002800D0B0E11E981F990122C74B5242E2
:104E100001F09CFA002800D037E11E981F9901226A
:104E2000C34B524201F0A0FA002800D0A7E01E9820
:104E30001F990022BF4B01F097FA002800D088E0AC
:104E40001E981F990022BC4B01F080FA002800D068
:104E50007FE01E981F990022002301F077FA0028B6
:104E600000D0FAE000230B938023229C229ADB00DF
:104E70001C401A4200D102E1092D00D87EE106A9AA
:104E80008C462C00172200233021093C6244013358
:104E9000D154EF1A202B00D132E1A342F7D10022E6
:104EA000A44B069207931E981F9901F08DFA0500F6
:104EB00001F072FA02000B001E981F9901F0E3F94D
:104EC000069A079B01F003FA0890099101F0A0FAF5
:104ED000060001F05DFA02000B000898099901F044
:104EE000D2F90022954B0890099101F03DFA002873
:104EF00000D1D2E00136300001F04AFA069A079B51
:104F000001F02AFA002801D000260135AA46002F18
:104F100000D098E0280001F03FFA02000B001E9834
:104F20001F9901F0B0F9854B002206000F0001F037
:104F30000DFA0CAB9A46002845D10022300039000A
:104F40007E4B01F011FA00283DD1EB073BD501352E
:104F500039E0229B42460493219B594603930A98C9
:104F60001E9B1F9C0295009301944B46FFF70CFD7E
:104F700015B0F0BCBB46B246A946A046F0BD229B88
:104F80005B0767D403226E4B22990192039121990A
:104F90000291009342464B4659460A98FFF7A2FBFE
:104FA000E6E706AA94461723280063440A21013441
:104FB0001E1900F005FF3031280031700A2100F081
:104FC000FFFE051E76D0202CEBD10323229A13403E
:104FD000012B1DD1219B002B1AD00B9B002B00D045
:104FE000BBE0229A0C33134200D0B6E0219BA342CF
:104FF00000D887E006AB9C4617223023624404E0C9
:105000002199013413558C4259D0202CF8D12024F9
:10501000229B01940393219B02935346B9E706AA6E
:10502000944617230A216344300001341D1900F00F
:10503000EFFE3031297030000A21013F00F0E8FE18
:10504000092E46D90600202CE9D155460CAB202468
:105050009A46B8E704223B4B96E71E9A1F9B002016
:10506000002101F010F901230B938023229C229A46
:10507000DB001E901F911C401A4200D0FCE600226B
:10508000314B0627069207930DE7229B0393219B42
:105090000293042301932D4B7BE700220898099982
:1050A000264B01F053F9002800D02FE7002E4FD1F6
:1050B00001362BE70323229A1340012B68D0202CC2
:1050C000A6D00B9B002B1FD02D2352461355013425
:1050D0009EE75546202CB9D030223B19002F4BD0EB
:1050E000172006A9013409180A55202CAED09C427D
:1050F000F6D10CAA92462E2251465C1CCA5462E795
:105100002024CCE6202C83D0229B5B0708D4229B52
:105110001B0700D47CE7202352461355013477E760
:105120002B2352461355013472E7C046FFFFEFFFB1
:10513000FFFFEF7F65CDCD4165CDCDC10000E03FE4
:10514000D8170310D017031080842E41E0170310E6
:10515000F30700D4DAE60136D8E6219B013B219320
:10516000A34200D946E7AAE7229B0393219B02931F
:1051700003230193084B0CE72300BAE7074BEA002F
:105180009B185C681B682F000693079400248AE62E
:10519000219B002B93D020E7DC1703108819031004
:1051A000F0B5DE4657464E464546E0B59FB01C007A
:1051B000289B93460A93CC4ACC4B8A4609901A60A6
:1051C000002900D14DE1002320789946002800D124
:1051D0004FE1C74B4D460893C64B0D930AE02A009A
:1051E0006E1C5B46099D5146A84735000134207866
:1051F000002872D02528F2D110239946083B984602
:10520000043B00219C46022701342078260003003D
:10521000203BDBB2102B03D8089A9B00D3589F4643
:105220000300303B092B6ED900272A2800D18AE0E1
:1052300000230B932E2800D176E00300683BDBB2FD
:10524000122B1BD8AC4C9B00E3589F460123013422
:105250001943DAE739430134D7E763460134194388
:10526000D3E74B4601341943CFE743460134194392
:10527000CBE780235B0070781943013667280AD892
:1052800024281FD90300253BDBB2422B1AD80D9AE4
:105290009B00D3589F460300693BDBB20F2B11D80C
:1052A00001249C40954AA446904614400C946246C2
:1052B0004446224200D025E20A2B00D101E1072B0F
:1052C00000D1D8E0099C2A005B465146A04770787F
:1052D0006F1C741C3D0000288CD1A9462C00CB45C6
:1052E00003D801235B425B4499465B464A465146DC
:1052F0000020099DA84720001FB0F0BCBB46B24665
:10530000A946A046F0BD0027BB00DF1901367F008B
:105310003F183078303F0300303B092BF4D900238D
:105320000B932E2800D088E780237078DB00194388
:105330000300303B741C092B00D82CE12A2800D133
:1053400038E1260079E70A9B80CB002F03DB6078E9
:105350000A93661C6CE70222607811437F420A932D
:10536000661C65E7672800D1C8E1472800D104E240
:10537000452800D104E207200A9B049107338343A8
:1053800019000B9A039702920CC909980092019395
:105390000A912A005B465146FFF7F6FA741C050095
:1053A00025E770786C2800D10DE280235B0019435B
:1053B000013663E780239B007078194301365DE76F
:1053C0007078682800D1F9E180230136194355E748
:1053D000462800D18FE107200A9B049107338343BD
:1053E00019000B9A039702920CC909980092019335
:1053F0000A912A005B465146FFF7F0FC741C050039
:10540000F5E62A00099C5B46514625206F1CA04703
:105410003D00741CEBE6890700D4DEE10A9B2A00FC
:1054200098466B1C9946434601CB51469846099CC9
:105430005B46C0B2A047ED19012F00D893E24C465D
:10544000B1465646099F22005B46013431002020B8
:10545000B847AC42F7D1B24643464E460A93741C55
:10546000C5E6274B2078099300239946002800D0F1
:10547000AFE6002433E70A9B1A0008CA9046002BC7
:1054800000D1A7E0212008430EA98C461F226244C8
:105490000F27AC46814615000C9C02E0202C0CD056
:1054A00013003800184001003731092800D80739A7
:1054B000013429551A090F2BF0D8654648460C943B
:1054C00094E00A9B1A0008CA12920B9A002A7BD118
:1054D00002241A786442002A1DD0013418199C460F
:1054E0001C00030010E0C046A1510010EC44002055
:1054F000E8170310781803102C18031041900000CF
:10550000E14600109C4203D0607801340028F9D1B4
:105510006346E01A0C908020C00084460840804614
:105520006046014204D00B980C9C844200D90C9038
:105530000220844608400A906046084200D189E172
:10554000101E00D170E14246002A00D11BE10B9AE7
:105550005B1B9046A84444462A00B84699465746E5
:10556000B246099E09E05B463900551CB0474B46E0
:10557000585D002800D12CE12A009442F3D1564610
:105580002500BA4647460A9B002B00D04CE1129BEF
:10559000741C0A932BE6002293009B185B000134D5
:1055A0001A182078303A0300303B092BF4D9260032
:1055B0000B9242E60A9B023604CBD043C01702404E
:1055C0000B9230780A9338E61A78002AA3D00B9809
:1055D000441E82E7102308008027984311331843A4
:1055E0000B00FF003B40394200D14DE708230593F3
:1055F0000B9B2A00049310230393002302930C9B1C
:105600000690019316AB009351465B460998FFF74D
:10561000B1F843460500741C0A93E8E5622800D1FE
:10562000A6E1582800D1B1E180230A00DB001A402E
:105630009046194200D189E1112399438C46802379
:1056400062469B001A40100062461A4200D023E1D5
:10565000802364465B001C401A4200D032E263465D
:105660005B0600D56BE163460A991B0600D4DBE2BA
:1056700008C91BB2DA179818504080B20A91DA0FA5
:105680000C92002B00D118E280460EAA91461F23EF
:105690004B441395E14645461297B0461E0001E083
:1056A000202C0FD028000A2100F0B2FB013437195A
:1056B0003031397028000A2100F0AAFB2F000500C4
:1056C000092FEDD84646CC46129F139D634606939C
:1056D0000B9B059704930A2303930C9B029316AB31
:1056E0002A000194009351465B460998FFF742F85F
:1056F000741C05007BE5202319436CE680231B0105
:10570000194338E6782800D07CE180230A00DB00CA
:105710001A409146194200D1A5E20D239943080091
:1057200003330C93802302009B001A4090461842DA
:1057300000D078E1802304005B001C40184200D0B8
:1057400007E2430600D453E2FF210A9B04CB0A4040
:1057500090460A934346002B00D026E1103398432D
:105760004B46002B00D120E100240B9B06900493B4
:105770000C9B059703930023B0E780231B0119437B
:1057800020231943F7E55B1B99460C9B099C98461F
:105790005B46B3465646BA461F002A003B0031001E
:1057A000A0474B460135585D0028F6D143460C937F
:1057B0003B005746B2465E469B46E4E6C023B078BF
:1057C000194302365AE5C0239B00B07819430236CC
:1057D00054E55646BA464746D5E6012F00D832E290
:1057E0006B1E9846B8442C00A9464546B846574615
:1057F000B246099E22005B46013439002020B047A2
:10580000AC42F7D10A9B564601CBBA46474698466A
:1058100022005B46099C5146C0B2A0474D46434614
:10582000ED190A93741CE2E40C9BA8469F4200D831
:10583000ADE64446B04656467D19099FED1A220052
:105840005B46013431002020B847AC42F7D1B24664
:1058500046469CE60C98874200D8F0E142469846BE
:105860007919B9465746B246099E0C1A0C922A007D
:105870005B46013539002020B047A542F7D1564696
:10588000BA464F4643460C9A90467A1C0C921A78B8
:10589000101E00D057E67AE60822072191460A9B9F
:1058A00007338B4399444A460ACB0C000A921C43A7
:1058B000DA0F002C4ED0D817040010904C401190F5
:1058C0000E94109811990C005C400F940E9B0F9C45
:1058D0001B1A8C410E930F940EA988461F23002497
:1058E00043441297B046270013951E000E9C0F9D4F
:1058F000E1460C9201E0202F10D0200029000A225E
:10590000002300F0C3FA013730322B00F2550D00AE
:1059100022000400002BEED1092AECD84646CC46E2
:105920000E940F950C9A3C00139D129F63460693AC
:105930000B9B059704930A2302920393CFE6FF2360
:105940000A9904C9134018000A9198E61023994354
:105950008C4674E643460024002BE7D10023002444
:105960000E930F94B8E743464D460A93741C3EE4E9
:1059700080230A00DB001A409146194200D140E121
:105980000D2399430B3B08000C93CBE680230A00C0
:10599000DB001A409146194200D162E10D2320201C
:1059A0009943033308430C93BCE66123810600D579
:1059B00041230EA91F228C46DBB262440A3B139797
:1059C0001495814645460C9FB0461293160008E098
:1059D0003033DBB201343355BD420ED3202C0CD012
:1059E00005003900280000F013FACBB20929EFD9DD
:1059F000129A94466344DBB2ECE746464846139F4E
:105A0000149DB2E66F2800D03CE10C2308009843B7
:105A100080230A00DB001A409146194200D02AE197
:105A200008230C937EE60A99FA3BFF3B0731994322
:105A300001339C468C4463464A680A930B6890463F
:105A40009C461343191E06D14B461031002488434F
:105A5000002B00D089E66121830600D541210EAAE2
:105A600091461F234B449946C9B20C9B0A391397A0
:105A70001495159645464E4600246746984681463D
:105A800012910CE03032D2B2002301343255AB42D5
:105A900000D1BCE0202C00D1BCE007000D00424644
:105AA00000233800290000F0F1F9D2B2092AE9D91F
:105AB000129B9C466244D2B2E6E74346002B00D0DC
:105AC00004E6E2E50A9C08CCDA0F1392002B00D121
:105AD000A5E0D9175B184B4098460EAA91461F23A4
